:020000040800F2
:1000000028210020D9010008073A000827320008FB
:10001000053A00085D0F0008C13F0008000000001D
:10002000000000000000000000000000193A000875
:100030008111000800000000093A00081B3A00087E
:10004000F3010008F3010008F3010008F3010008C0
:10005000F3010008F301000885110008D911000818
:10006000F3010008F3010008F3010008F3010008A0
:10007000F3010008F3010008610F0008AD0F00084C
:10008000F3010008F3010008F3010008F301000880
:10009000F3010008F3010008F3010008F301000870
:1000A000F3010008F3010008F3010008F301000860
:1000B000F3010008F3010008F3010008F301000850
:1000C000F3010008F3010008F3010008F301000840
:1000D000F3010008F3010008F3010008F301000830
:1000E00099110008F3010008F3010008F30100086A
:1000F000F3010008F3010008F3010008F301000810
:1001000000000000F3010008F3010008F3010008FB
:100110000000000000000000F3010008F3010008E7
:10012000F3010008F3010008F3010008F3010008DF
:10013000F3010008F3010008F3010008F3010008CF
:10014000F3010008F3010008F3010008F3010008BF
:10015000F3010008F3010008F3010008F3010008AF
:10016000F3010008F3010008000000000000000097
:10017000000000000000000000000000000000007F
:100180000D3A0008F3010008000000000000000024
:10019000F3010008F3010008000000000000000067
:1001A000000000000000000000000000000000004F
:1001B000F30100080000000000000000F301000847
:1001C000F3010008DFF80CD000F0B8FA004800474F
:1001D000994C00082821002006488047064800471F
:1001E000FEE7FEE7FEE7FEE7FEE7FEE7FEE7FEE7E7
:1001F000FEE7FEE7BD3A0008C50100082DE9F05F03
:100200000546002092469B46884606468146402485
:100210001BE0284641464746224600F0D9F853469F
:100220005A46C01A914110D311461846224600F092
:10023000C0F82D1A67EB01084F4622460120002125
:1002400000F0B7F817EB00094E41201EA4F101049D
:10025000DFDC484631462A464346BDE8F09FD2B22D
:1002600001E000F8012B491EFBD270470022F6E79F
:1002700010B513460A4604461946FFF7F0FF20461C
:1002800010BD2DE9F04D81EA030404F0004B21F08C
:10029000004514464FF0000A23F0004150EA0502E1
:1002A00020D054EA01021DD0C5F30A570246C5F317
:1002B0001303C1F31300C1F30A5640F4801543F44D
:1002C0008013A7EB0608101BD64608F2FD3873EB27
:1002D000050002D308F1010801E092185B41B8F172
:1002E000000F03DA00200146BDE8F08D00204FF436
:1002F0008011064684460EE0171B73EB050705D3F5
:10030000121B63EB050306434CEA010C49084FEA54
:10031000300092185B4150EA0107EDD152EA030028
:1003200012D082EA040083EA0501084305D0101BBD
:10033000AB4106D20122002306E000224FF0004329
:1003400002E06FF0010253101AEB06004CEB08516B
:1003500010EB0A0041EB0B01BDE8F04D00F048B88E
:1003600000F0004230F000400AD0C10D01F560718C
:10037000C0F3160042EA0151C2084007114370471A
:1003800000200146704730B50B4601460020202270
:10039000012409E021FA02F59D4205D303FA02F592
:1003A000491B04FA02F52844151EA2F10102F1DCF2
:1003B00030BD202A04DB203A00FA02F10020704709
:1003C0009140C2F1200320FA03F319439040704793
:1003D000202A04DB203A21FA02F00021704721FA9A
:1003E00002F3D040C2F12002914008431946704701
:1003F00010B5141E73F1000408DA401C41F100012D
:1004000092185B411A4301D120F0010010BD2DE983
:10041000F04D92469B4611B1B1FA81F202E0B0FA7A
:1004200080F220329046FFF7C4FF04460F4640EAB0
:100430000A0041EA0B0153465A46084313D01146BD
:1004400053EA010019D0C8F140025046FFF7C0FF3F
:1004500005460E46504659464246FFF7AAFF084356
:1004600005D0012004E020463946BDE8F08D00208B
:10047000054346EAE0762C4337430A986305E40ACD
:10048000A0EB08000022FD0A44EA47540A3002D5D6
:1004900000200146E9E7010510196941DDE9084539
:1004A00000196941BDE8F04DA2E72DE9FE4F8046F5
:1004B00081EA0300C00F0C46009021F0004123F0B8
:1004C0000045B8EB0200A94105D2404621469046BE
:1004D0001C460B46024623F00040104347D0270D30
:1004E000C7F30A00C3F30A510290401A0190402852
:1004F0006BDAC3F3130040F4801B0098924620B1DE
:100500000023D2EB030A63EB0B0B01985946C0F1B1
:1005100040025046FFF74DFF06460D4650465946ED
:10052000019A00F01DF910EB08006141002487EAF0
:10053000115284EAE7731A4340D0009A62B3019AD9
:10054000012A4FEA075215DC001B61EB02014FF054
:10055000004202EA0752CDE90042001C41F5801139
:1005600032462B46FFF753FF03B0BDE8F08F4046FD
:100570002146F9E7001B61EB0201001C41F58013E5
:1005800000185B412018A2F5001747EB030140EA71
:10059000D570B6196D4111E06D084FEA360645EA8F
:1005A000C0754FEA0752001B61EB0201001C41F5C8
:1005B000801149084FEA30000019514132462B465C
:1005C00003B0BDE8F04FFFF713BF009801224000D1
:1005D0000023D0EB020263EBE073009821464FEA60
:1005E000E074B8EB000061EB0401E9E783F000433D
:1005F0005BE781F0004158E72DE9FE4F81EA0304F3
:1006000004F0004421F0004100944FF0000B23F06F
:10061000004350EA01045ED052EA03045BD0C3F306
:100620000A54C1F30A552C44A4F2F3340194A0FBFC
:100630000254C1F3130141F48011C3F3130343F4D3
:10064000801301FB024400FB034E840A970A44EA2C
:10065000815447EA8357A4FB076802958D0A05FB7E
:1006600007854FEA932C04FB0C542705029D4FEAA3
:10067000065847EA1637B5EB08056EEB070C870EF0
:10068000920E47EA811742EA8312A7FB0201B6EBFA
:100690000B0164EB00042B0D43EA0C335E1844EBB2
:1006A0001C50DA465146E7FB0201C5F313044FEA3A
:1006B0000B3343EA14534FEA0432019C43EA060326
:1006C000A4F10C040294009CCDE900B4FFF79FFE56
:1006D00003B0BDE8F08F00200146F9E7C1F30A52EC
:1006E000C1F3130140F2FF3341F480119A4202DA60
:1006F00000200146704740F233439A42A2F233424F
:1007000002DC5242FFF764BEFFF753BE30B5041E51
:1007100071F1000404DB4FF00044404264EB01013E
:10072000141E73F1000405DB1C464FF000435242D7
:1007300063EB0403994208BF904230BD064C074D5D
:1007400006E0E06840F0010394E8070098471034A1
:10075000AC42F6D3FFF73AFDF06A0008106B0008D0
:10076000202A06DBCB17203A41FA02F043EAE07375
:1007700006E041FA02F3D040C2F120029140084362
:10078000194670472DE9F04F81B02DED108B88B0E0
:10079000D0E901CB0488601E03900CEB800E002092
:1007A000CDE90143B0EBD30F00F0FA81A0EBD40008
:1007B00004F007059FEDF90ADB08069044F00700F6
:1007C0000CEB800A24F007000BEB80000590E0089A
:1007D00007906842049060460C68CEF800404C6870
:1007E000CEF804408C68CEF80840CC68CEF80C40B7
:1007F0000C69CEF810404C69CEF814408C69CEF8E4
:100800001840CC69CEF81C40079CD0ED007AD0EDA2
:10081000010A90ED027A90ED031A90ED042A90ED12
:10082000053A90ED064A002C00F04E81DDF8189054
:100830004FF00008F0EE401AF0EE402AF0EE403A99
:10084000B0EE405AF0EE406AF0EE405AF0EE404A08
:10085000B0EE406A0BEB080600EB080408F1200834
:1008600019F1010996ED00CA94ED07BA94ED088AD2
:1008700096ED01DA94ED099A96ED02EA96ED03FA07
:1008800094ED0AAA6CEE0B8A63EE0CAA61EE0CBA28
:1008900064EE0C9A67EE8C7A71EEA81A67EE0C8AF9
:1008A00073EEAA3A76EEAB6A72EEA92A60EE8C9AE3
:1008B00036EE276A60EE8D0A61EE0F7A75EEA85A61
:1008C0006DEE088A74EEA94A6BEE0D9A36EE206A38
:1008D00069EE0F0A71EEA81A64EE0D8A72EEA92A6B
:1008E00073EEA83A62EE0D8A76EEA86A61EE0D8A82
:1008F00075EEA85A67EE0D8A27EE0E7A74EEA84AB6
:100900006EEE098A36EE076A2FEE0A7A71EEA81AA1
:1009100068EE0E8A36EE276A72EEA82A6BEE0E8A11
:1009200031EE877A68EE0F1A73EEA83A63EE0E8AFC
:1009300072EEA00A6BEE0F2A76EEA86A62EE0E8ABD
:1009400073EEA11A75EEA85A61EE0E8A94ED0B1A99
:1009500074EEA84A62EE0C8A22EE0FCA35EE285ACF
:1009600063EE0D8A23EE0FDA74EE8C4A35EE285AC8
:1009700064EE0E8A24EE0FEA75EE8D5A96ED07FAB4
:1009800035EE285A76EE8E3A35EE225AD6ED042A06
:1009900069EE0F8A68EE0F9A68EE227A22EE22CA7A
:1009A0002AEE22DA29EE222A62EE816A35EE275AF1
:1009B000D6ED057A70EE8D0A23EE22DA71EE821AF8
:1009C00094ED0C2A37EE267A6BEE226A64EE222A28
:1009D00036EE0C6A74EE8D4A73EEA63A75EEA22AD4
:1009E00023EE27DA2AEE273A29EE27CA67EE826A33
:1009F00061EE275A71EE831A35EE0C5A96ED06CA4F
:100A000094ED0D3A37EE267A68EE276A70EEA50A65
:100A10006BEE275A64EE277A36EE0D6A73EEA63A2D
:100A200072EEA52A74EEA74A6CEE036A62EE0C5AC7
:100A300061EE0C7A2BEE0CEA2AEE0CDA2BEE0FBAF2
:100A400037EE267A69EE0C6A70EEA50A68EE0C5A4B
:100A500024EE0CCA94ED0E4A71EEA77A74EE8E4A1B
:100A600035EE0D5A2AEE0FDA73EEA66A72EEA55A2B
:100A700036EE0C6A74EEA94A6FEE041A76EE8D6AB1
:100A800075EEA85A36EE0B6A77EE211A23EE0F7A2E
:100A900070EE872A21EE0F7A62EE0F0A77EEA03A07
:100AA00035EE075AB0EE4A7AF0EE490AF0EE487A8F
:100AB0007FF4D0AE059C5646F0EE487AF0EE490A37
:100AC000B0EE4A7A13E000BF00F11C065C46B0EEBF
:100AD000406AF0EE404AF0EE405AF0EE406AB0EE66
:100AE000405AF0EE403AF0EE402AF0EE401A0EF195
:100AF000200E2031C5B3049F94ED009AB0EE608AB9
:100B0000F0EE470AB0EE417AB0EE421AB0EE432A58
:100B1000B0EE443A96ED004A013706F1040604F1BE
:100B2000040429EE04AA23EE09BA22EE09CA21EE32
:100B300009DA27EE09EA20EE89FA68EE098A67EEFB
:100B4000897A36EE276A71EE8A1A72EE8B2A73EE74
:100B50008C3A35EE0D5A76EE8E6A75EE8F5A74EE3B
:100B6000A84AF0EE487AC7D182ED006AC2ED014A88
:100B7000C2ED025AC2ED036A82ED045AC2ED053A93
:100B8000C2ED062AC2ED071A0AF1200A013B02F162
:100B9000200200F120007FF41FAE02E00000000000
:100BA0006046029B13F0070928D0019B9FED280A9D
:100BB000C3F100080C684646B0EE401ACEF800407B
:100BC000002400BF05190BEB0407013604F10404EF
:100BD00097ED002A95ED003A23EE022A31EE021A33
:100BE000F0D182ED001AB9F1010900F1040002F11F
:100BF00004020EF1040E01F10401DBD1039B00217C
:100C0000B1EB930F14D09908494200BF026801313B
:100C1000CCF800204268CCF804208268CCF8082088
:100C2000C26800F11000CCF80C200CF1100CEDD1D2
:100C300013F0030106D0494250F8042B01314CF85F
:100C4000042BF9D108B0BDEC108B01B0BDE8F08FDA
:100C500000000000B0B582600546018004981C4683
:100C600008446FF0030101EB80011846FFF7FEFA1C
:100C70006C60B0BD464910B54A6822F440324A6003
:100C80004A6843681A434A6001684A6822F48072DD
:100C90004A6001684A68036942EA03224A600168BF
:100CA0004A6822F040724A6001684A6883681A43C1
:100CB0004A6001688A6822F400628A6001688A6872
:100CC000C3681A438A60816A6FF07062D14201681A
:100CD0008A6822F070628A6001688A680CD0836A30
:100CE0001A438A6001688A6822F040528A6001686B
:100CF0008A68C36A1A4301E022F040528A600168A0
:100D00008A6822F002028A6001688A68037E42EAE9
:100D100043028A6090F82010002901684A680FD0C9
:100D200042F400624A6001684A6822F460424A6004
:100D300001684A68174C436A04EB43331A4301E0E5
:100D400022F400624A600168CA6A22F47002CA6230
:100D50000168CA6A838B104C04EB03531A43CA62BE
:100D600001688A6822F400728A6001688A6890F8D3
:100D7000303042EA43228A6001688A6822F4806245
:100D80008A6001688A68406942EA8020886010BDF4
:100D90000023014000E0FFFF0000F0FF2DE9F041DB
:100DA00007460026124800F0C1FB00252C460CE047
:100DB00005210F4800F068FB28B90D4800F006FB3C
:100DC0006D1C0644EDB2641CE4B2BC42F0D3B6FB29
:100DD000F5F000EE100ADFED070A9FED071AB8EEF6
:100DE000400A60EE200A80EE810ABDE8F081000032
:100DF0003C0C00203333533ABCBB3B3F70B5044638
:100E00001D491E48B1F9002000684FF6FF73181AFB
:100E1000012303EB5000C0F30E00831A1AB20880BE
:100E2000FF2A02DDA3F5004212B26FF0FE05AA42CE
:100E300002DA03F500431AB24B881A444A800E497D
:100E40000F4B091DB1F900201B68C3F34E0633B2E6
:100E50009B1A1AB20E80FF2A02DDA3F5004212B2DD
:100E6000AA4202DA03F500431AB24B88012C1A4455
:100E70004A8000D0304670BD180000202404004095
:100E80002408004010B50446FFF7B8FF0021012CEC
:100E900004D0044AB2F90200518010BD014A121F69
:100EA000F8E700001C000020044B4FF4005118B17B
:100EB0000122184600F0F1BD0022FAE700080240C6
:100EC0002DE9F0419FED241A06462DED048BB7EE77
:100ED000008A20EE819AC8EE008A0F4688EE200A2A
:100EE000C0EE280ABCEEE00A10EE100A85B2B2EBA2
:100EF000450F00D25508002427E000BF00EE104A3D
:100F0000B8EE400A20EE280A29EE000A03F0A2F803
:100F100070EE080A00EE106A07EB8401B8EE400A92
:100F200020EE800ABCEEC00A10EE100A00EE106A35
:100F300027F82400641CB8EE400AA4B220EE800A10
:100F4000BCEEC00A10EE100A4880AC42D6D3BDEC0D
:100F5000048B2846BDE8F081DA0FC940FEE70000A7
:100F60000D4910B50878401C08700C4800F03CFB97
:100F70000C4C0B482168226800EB41010A4800EB49
:100F80004200802200F06AF8206810B10020206042
:100F900010BD8020FBE7000028000020641C00201A
:100FA000641600203000002064180020014800F082
:100FB0001BBB0000C41C002001681823CAB2103AF1
:100FC000B2FBF3F2054B6FF30901032A9B5CC36587
:100FD00000D9091D8165084670470000B06A000805
:100FE00010B5014600208B698A6A4FF0C07453B176
:100FF000B3F5005F15D072B1012A0CD0022A0AD0D5
:10100000032A09D104E01AB1012A06D0022A03D129
:10101000C96AC90100D5012010BDC96AA142FAD030
:1010200010BD002AF7D0012AF2D0022AF3D0032AF9
:10103000F3D010BD30B50468256825F480252560FF
:10104000046863608368402B036803D0996000687C
:10105000C26030BD9A600068C16030BD70B5454B5C
:101060000D46002203F5807130F9224000EE104A4F
:1010700003EB8204B8EEC00A84ED000A00EB8204A0
:10108000B4F9024000EE104A01EB8204521CB8EEA3
:10109000C00A92B2402A84ED000AE5D33648B0EE89
:1010A000000A0088354C0128A4F580763AD0032840
:1010B0004FF000003FD000BF03EB800292ED000A2A
:1010C00006EB8002401C80B282ED000A4028F3D378
:1010D0005FF0000001EB800292ED000A04EB800259
:1010E000401C80B282ED000A4028F3D35FF000007C
:1010F00006EB800105EB800291ED000ABDEEC00A0F
:1011000010EE101A25F8201004EB8001401C91ED20
:10111000000A80B24028BDEEC00A10EE101A5180BD
:10112000E6D370BD154B1348A3F5007202F580712C
:1011300000F05EF8DAE703EB8002D2ED000A06EB7E
:101140008002401C60EE800A80B24028C2ED000A96
:10115000F1D3002001EB8002D2ED000A04EB800203
:10116000401C60EE800A80B24028C2ED000AF1D334
:10117000BCE70000480000200000002048030020D9
:101180007047000003480178491C0170012000F0FD
:10119000B5BB0000250000200C4910B50868C0044C
:1011A00003D50B4A1078401C10700868800403D5E2
:1011B00008490878401C08704FF4805000F09EFBEE
:1011C000BDE810404FF4005000F098BB143C0140C3
:1011D000270000202600002003480178491C0170E8
:1011E000022000F08BBB00002400002070470000AC
:1011F00070B51646084C0A461D4601460748236846
:10120000FFF7C0FA2A4631462368BDE8704003481C
:101210000C30FFF7B7BA000020000020180C0020A7
:1012200008B50548054B064A006800901D2103F5E6
:10123000C470FFF70FFD08BD20000020A80A0020A1
:10124000106A000838B50A4C0A4B0B4A2068009017
:101250000B2103F57070FFF7FDFC2068074B009031
:10126000054A0B2103F52970FFF7F4FC38BD000097
:101270002000002058080020846A0008800900200F
:1012800078B50024009490F83C20012A19D001225E
:1012900080F83C200A6807230568092A13D9EE68FC
:1012A0000A3A02EB420293409E43EE600B788A6852
:1012B0000A3B03EB43039A400368DD682A43DA6084
:1012C00010E0022078BD2E6902EB420293409E435B
:1012D0002E610B788A6803EB43039A4003681D690B
:1012E0002A431A614A681F23072A13D205686E6BC6
:1012F000521E02EB820293409E436E630B790A8872
:101300005B1E92B203EB83039A4003685D6B2A4332
:101310005A6327E005680D2A12D22E6BD21F02EB0A
:10132000820293409E432E630B790A88DB1F92B2A0
:1013300003EB83039A4003681D6B2A431A6311E091
:10134000EE6A0D3A02EB820293409E43EE620B7905
:101350000A880D3B92B203EB83039A400368DD6A6F
:101360002A43DA62164B0568144A9D4206D10D687D
:10137000122D03D1556845F48005556005689D42DE
:1013800018D10B68102B01D0112B13D1536843F4E3
:1013900000035360096810290CD10A490A4A0968F8
:1013A000B1FBF2F101EB8101490000E0491E00911F
:1013B0000029FBD180F83C40002078BD002301408B
:1013C000002001404000002040420F000068C06C37
:1013D000704770B504004FF0000503D0206C002664
:1013E00010B107E0012070BD204600F01DF86664D2
:1013F00084F83C60206CC00610D4206C20F4885027
:1014000040F0020020642046FFF734FC6664206C44
:1014100020F0020040F00100206400E0012584F883
:101420003C60284670BD000010B586B0044614210B
:101430006846FEF71BFF1149206888421CD11048FE
:101440000021026842F480720260006800F480703B
:1014500005900B481438026842F0020202600068EE
:1014600000F002000590022000900320CDE9010168
:101470006946044800F04EFA06B010BD0020014055
:1014800044380240000402402DE9F041044600685F
:101490000D4681684FF0000749050BD58068C005EF
:1014A00008D5206C40F02000206484F83C700120B6
:1014B000BDE8F08100F0F6FA06460FE0681C0DD09A
:1014C00025B100F0EFFA801BA84207D9206C40F04C
:1014D0000400206484F83C700320E9E72068006879
:1014E0008007EBD521686FF012000860206C40F493
:1014F000007020642068816811F0405F13D1217E64
:1015000089B9C16A11F4700F02D0806840050AD40D
:10151000206C20F480702064206CC00403D4206C04
:1015200040F0010020640020C2E7000018B500214F
:10153000009190F83C20012A07D0012280F83C203D
:1015400002689368DB0702D011E0022018BD93689F
:1015500043F001039360204A204B1268B2FBF3F280
:1015600002EB420200E0521E0092002AFBD1026808
:101570009368DB072DD0036C40F20164A34343F46E
:101580008073036453685B0505D5036C23F4005333
:1015900043F480530364036CDB0404D5436C23F0F1
:1015A0000603436400E0416480F83C100C496FF08E
:1015B0002203136049680068C90602D009498842BD
:1015C00007D1816811F0405F03D1816841F080410B
:1015D0008160002018BD00004000002040420F0044
:1015E00000230140002001402DE9F84304464FF05C
:1015F0000009CDF8009063484FF41651A56D0068BE
:10160000B0FBF1F72E6894F85C10082000FA01F1A5
:1016100031420FD021680A6852070BD50A6822F0C0
:1016200004020A6094F85C108840A860606D40F085
:101630000100606594F85C104FF0010808FA01F0B1
:10164000304208D021684969090604D5A860606D58
:1016500040F00200606594F85C100420884030423D
:1016600008D021680968890704D5A860606D40F03A
:101670000400606594F85C1010208840304218D057
:1016800021680968090714D5A86020680168490322
:1016900004D50068000308D5A16C07E00168C905FE
:1016A00003D4016821F008010160216C09B12046D2
:1016B000884794F85C1020208840304231D021685F
:1016C0000968C9062DD5A86094F83500052820685A
:1016D000016806D0490347D5006800031DD4616C3A
:1016E0001CE021F0160101602068416921F08001B1
:1016F0004161206C08B9A06C20B12068016821F01C
:101700000801016094F85C103F208840A86084F8CC
:10171000349084F83580216D1FE0E16B09B12046DB
:101720008847606D00282BD0606DC00714D005205D
:1017300084F835002068016821F0010101600098FB
:10174000401C0090B84203D820680068C007F6D15A
:1017500084F8349084F83580E16C002910D001B011
:101760002046BDE8F04308470168C905D5D40168A3
:1017700021F01001016084F8349084F83580CCE7C2
:10178000BDE8F883400000202DE9F041044600F058
:1017900089F906465CB1002584F83450022084F8AB
:1017A00035002068016821F0010101600DE0012091
:1017B000BDE8F08100F076F9801B052805D92020CE
:1017C0006065032084F83500F2E720680068C007F0
:1017D000F0D12268116820480140D4E90103184380
:1017E000D4E903363343184363691843A3691843A4
:1017F000E3691843236A18430843616A042903D143
:10180000D4E90B1319430843106020684069666AE5
:1018100020F0070130460E43012704280CD1A06AAE
:101820000643E06A40B12046FFF7DAFB20B14020D2
:10183000606584F83570BAE7206846612046FFF796
:10184000BBFB94F85C203F2191408160656584F882
:1018500035700020ACE700003F8010F02DE9F0412A
:101860000446866D90F83400002501280DD0012033
:1018700084F8340094F835700020012F07D084F8E4
:10188000340002252846BDE8F0810220FBE702274C
:1018900084F8357060652046FFF7CCFB94F85C1047
:1018A0003F208840B0602068016841F01601016067
:1018B0002068416941F080014161206C20B12068BD
:1018C000016841F0080101602068016841F00101F0
:1018D0000160D7E770B5044600F0E4F80546601CE7
:1018E00002D004480078044400F0DCF8401BA04219
:1018F000FAD370BD3400002070470000044910B5D1
:101900000A68024202D00860FFF7F6FF10BD00002F
:10191000143C01402DE9F84FDFF858B100224FF098
:1019200001084FF0030A4FF00F090BF1040E00BF3E
:101930000B6808FA02F42340A3427DD14D68022DC2
:1019400001D0122D0ED1D50800EB850CDCF820500B
:101950005607F70E09FA07F6B5430E69BE402E4347
:10196000CCF82060066855000F790AFA05FC07F0EC
:10197000030726EA0C06AF40374307604E68012E86
:1019800005D0022E03D0112E01D0122E0ED1866862
:10199000CF6826EA0C06AF40374387604668A64307
:1019A0000C79C4F30014944034434460C4688E68D6
:1019B00024EA0C04AE402643C6604C68E40052D5CD
:1019C0002D4C256845F480452560246822F00305E8
:1019D00004F480440094294C2E19D6F80848950741
:1019E0002F0F09FA07F5AC43254DA84201D1002578
:1019F0000FE0244DA84201D101250AE0224DA84262
:101A000001D1022505E0214DA84201D1032500E0C6
:101A10000725BD402543C6F80858DBF800405D4661
:101A20004E689C43F60300D51C432C60DEF8004052
:101A300075469C434E6800E015E0B60300D51C4394
:101A40002C600C4D08352C684E689C43F60200D57E
:101A50001C432C60074D0C352C684E689C43B60225
:101A600000D51C432C60521C102AFFF461AFBDE866
:101A7000F88F0000003C0140443802400030014033
:101A8000000002400004024000080240000C024036
:101A90000069084000D0012070470AB18161704799
:101AA0000904FBE70148806870470000340000200B
:101AB00070B504001BD094F83D00002520B984F8CF
:101AC0003C50204600F046F9242084F83D00206870
:101AD000016821F00101016000F0B0FF4D4A61682A
:101AE000914201D84C4900E04C49884201D2012082
:101AF00070BD4B492368B0FBF1F15E6826F03F06EC
:101B00000E435E606368934206D94FF4967359435F
:101B10004FF47A73B1FBF3F12368491C1E6A26F077
:101B20003F06314319626168914210D84900401E56
:101B3000B0FBF1F2521CC2F30B02042A01D20420C2
:101B400022E0B0FBF1F0401CC0F30B001CE0A368E6
:101B5000F3B301EBC10202EB0116421EB2FBF6F237
:101B6000521C42F48042120549D093B301EBC102EA
:101B700002EB0111401EB0FBF1F0401CC0F30B0062
:101B800040F4804040F400402168CA694CF6FF737D
:101B90009A431043C861D4E90701084321680A68E1
:101BA00022F0C00210430860D4E903010143206819
:101BB000826848F2FF339A4311438160D4E90501FA
:101BC00008432168CA6822F0FF021043C86001E0A0
:101BD0000EE016E02068016841F001010160256413
:101BE000202084F83D00256384F83E50002070BD1D
:101BF00001EB4106421EB2FBF6F2521CB3E7012094
:101C0000C2E701EB4101401EB0FBF1F0401CC0F304
:101C10000B00B7E7A086010080841E0000093D008C
:101C200040420F002DE9FF4F83B09A46DDE911973E
:101C300093460446DDF84080FFF734FF054694F8EC
:101C40003D0020287FD119230122404920460095DC
:101C500001F072FB002876D194F83C00012872D084
:101C6000012084F83C0020680168C90703D101689D
:101C700041F0010101602068016821F40061016008
:101C8000212084F83D00402084F83E000026266490
:101C9000C4F82480A4F82A90608D20852C48E06246
:101CA000CDE9007553465A462046049901F0D4FA0E
:101CB00070B930E02A463946204601F0BCFB58B1E5
:101CC000206C042804D12068016841F4007101608F
:101CD000012007B0BDE8F08F606A216800780861D4
:101CE000606A401C6062218D491E89B22185628D27
:101CF000521E628522685369DB435B070BD469B1CE
:101D000000781061606A401C6062208D401E208552
:101D1000608D401E6085208D0028CBD12A46394633
:101D2000204601F0E3FA0028CAD154F83D0B0168BF
:101D300041F400710160202004F81E09E6776677FF
:101D40000020C6E7FFE70220C3E700000200100002
:101D50000000FFFF2DE9F04186B0044614216846DB
:101D6000FEF784FA2B4A2168DFF8AC802A48122457
:101D700001250326042708F11008914219D10168B2
:101D800041F0020101600068694600F00200059020
:101D900030028DE8F1002148FFF7BCFDD8F80010B3
:101DA00041F40011C8F80010D8F8000000F4001049
:101DB0002BE01B4A914229D1016841F004010160E6
:101DC000016801F004010591016841F00101016021
:101DD0000068694600F00100059050158DE8F1009B
:101DE0001048FFF797FD4FF480708DE8F1006946C9
:101DF0000D48FFF78FFDD8F8001041F40001C8F836
:101E00000010D8F8000000F40000059006B0BDE80E
:101E1000F0810000005400403038024000040240CD
:101E2000005C004000080240000002402DE9FF4134
:101E300004460068816800917749784E4FF040274A
:101E4000884201D1324600E03A46926801924068E9
:101E50008846029001D1304600E038464068039041
:101E600060684FF00105B0F5007F1CD0D8B1900735
:101E700005D50398000602D5204601F033FB0098F3
:101E8000C0070FD0029840067FD521682046CA6857
:101E9000E16A8B1CE3620A80618E491E6186618E55
:101EA000002967D071E00098800719D502980006D4
:101EB00016D5616A20468A1C626222680988D16050
:101EC000618D491E6185618D51B901684A6822F0B2
:101ED000A0024A60418E19B980F8415000F070F9B3
:101EE0000198C00705D00398400602D5204601F0AE
:101EF000C9FA0198400622D5039880061FD52168AB
:101F0000414501D1304600E03846406820F060018C
:101F100001D1304600E0384641602068416821F038
:101F2000A00141602068C1688068019084F8415038
:101F3000606C40F002006064204600F043F90098B5
:101F4000000767D50298800664D52068416821F0B3
:101F5000A00141602168414501D1304600E038468A
:101F6000406820F0600000D03E46706020688068C5
:101F7000009043E001684A6822F060024A60418DA7
:101F800019B980F8415000F01BF9009840061ED5A1
:101F9000029880061BD52068416821F060014160ED
:101FA0002168414501D1304600E03846406820F0C4
:101FB000A00101D1304600E03846416084F841502C
:101FC000606C40F002006064204600F0FBF801986D
:101FD00000071FD5039880061CD52168414501D113
:101FE000304600E03846406820F0A00000D03E4671
:101FF00070602068416821F06001416084F84150C0
:10200000606C40F00400606404B02046BDE8F0411C
:1020100000F0D8B8BDE8FF8100380040003400402F
:102020002DE9F84F044690F84100154689464FF0D7
:10203000000AD346012802D04FF0020A82E0E9B339
:10204000E2B3DBB394F8400001283DD0012084F8CE
:102050004000E26261622068C06900F00700032866
:1020600034D0052832D0238563852386A4F8323006
:10207000C4F844B0052084F84100E36B4B48186471
:10208000E66B4B4BF363E76B4A4EFE64A76B386419
:10209000A06BC363A06BC6642068C369DFF81881B6
:1020A00003F44073454E4FF04027B3F5007F16D040
:1020B000ABB1C269C2F30122032A00E001E045D0BE
:1020C00047E00120BDE8F88F0220FBE74FF6FF70E4
:1020D00000EA43002085608520866086C8E7238E5D
:1020E000404501D1314600E039460C31E06BFFF745
:1020F000B5FB2068404501D1304600E038464068D5
:1021000040F0010001D1314600E039464860238D9E
:102110002268494602F10C02A06BFFF79FFB206882
:10212000416841F0020138E040453CD13046C06989
:1021300040F4806000D03E46F0612068C16941F4FF
:102140008061C16184F840B05046BBE7C2688268D4
:102150000092238D404501D1324600E03A460C32D0
:10216000A06BFFF77BFB2168414501D1314600E0C0
:102170003946496841F0020101D1304600E0384655
:102180004160238E21682A4601F10C01E06BFFF7C4
:1021900065FB2068416841F0010141602068C16928
:1021A0004905C1D5CEE73846C1E7000061360008D1
:1021B000453500080D360008003800400034004066
:1021C00070477047704700002DE9F047040005D0C4
:1021D00094F841004FF0000918B109E00120BDE872
:1021E000F08784F840905B486063204600F0BCF8BC
:1021F000022784F841702068C16940F6BF7821EA5F
:102200000801C161206807626069534D4FF4007A8C
:10221000022837D0E06860B12026A068202800D8C6
:1022200076002068A84202D04C49884203D10120A0
:1022300002E01026F1E7022000F0CCF921695145B7
:102240001DD1E16809B1B10000E0F100B0FBF1F08F
:1022500000EB800061694000B0FBF1F0401D0A21F5
:10226000B0FBF1F000F00101401A40080902821EA3
:10227000FE2A09D3606C40F010006064AEE7B0FB4A
:10228000F6F0E5E7022000212269084302432068B6
:102290000262D4E901100143A269E0681043226898
:1022A0000143D36923EA0803194341F40061D16172
:1022B000A168302901D0B02904D12168CA6942F44B
:1022C0008052CA61216A012939D125496163236895
:1022D00024494FF04022AB4201D10B4600E01346A7
:1022E000DB6923EA080301D1084600E01046C36118
:1022F0002068A84201D1084600E010460762236822
:10230000AB4201D1084600E01046C06986B2606861
:1023100050451BD0D0B100202789B4F80CC047EA43
:102320000C07B4F818C04CEA000C47EA0C07B8B226
:10233000304340F40060AB4200D01146C861C4F89D
:102340004490012084F84100002048E74FF4807059
:10235000E2E700006B36000800380040003C004017
:102360002D1E0008003400402DE9F04F87B00646CE
:1023700014216846FDF77AFF4149306888427CD1D4
:102380004048002500683F4940F4804008600868E4
:1023900000F4804005903B481038016841F004018A
:1023A0000160016801F004010591016841F002013A
:1023B00001600068042700F00200009705900224E5
:1023C000CDE901450620CDE90350DFF8BC90694610
:1023D0004846FFF79FFA08208DE831004FF00508C6
:1023E000CDE9035869464846FFF794FA4FF4A050E8
:1023F0008DE83100CDE9035869462448FFF78AFA91
:10240000244C23484FF4003A20604FF0C060C4E9E8
:102410000105C4E908A74FF4806BC4E9035B7802A7
:102420000127C4E90A7504F114014FF400584FF470
:102430008079256381E801032046FFF7A5F908B1FB
:10244000FEF7D4FEF463A6631148134C1830E4E899
:1024500002054020A4E821084001A4E80107042067
:1024600044F824090C48C4E90A752563FFF78CF980
:1024700008B1FEF7BBFEB463A66307B0BDE8F08FFA
:10248000003800404038024000080240000402408A
:1024900058600240641C0020C41C00207047704734
:1024A000024881680278114481607047340000203E
:1024B0000B4810B5016841F400710160016841F4F6
:1024C00080610160016841F480710160032000F0C7
:1024D0006FF8002000F006F800F024F8002010BD8E
:1024E000003C024070B50D4D04464FF47A712878D7
:1024F000B1FBF0F00A490968B1FBF0F000F0E9FC2B
:1025000048B9102C07D200222146501E00F030F8A6
:1025100000206C6070BD012070BD00003400002000
:10252000400000200A4808B5016841F4804101607C
:10253000006800F4804000900548001F016841F0E9
:1025400080510160006800F08050009008BD0000DC
:1025500044380240002809DB00F01F0201219140AD
:102560004009800000F1E020C0F800117047000031
:10257000F0B40E4B1B680C46C3F30223C3F10705EE
:10258000042D00D90425191D072901D2002300E0DC
:10259000DB1E012606FA05F1491E214099409E40A6
:1025A000761E16403143F0BC01F043BD0CED00E057
:1025B000064900F0070208684FF6FF03184040EA9A
:1025C0000220034A10430860704700000CED00E051
:1025D0000000FA05F0B5344C314A31490746002075
:1025E0002F4E304D6300083A8839012F0FD0022F4B
:1025F0001ED1366816F0C05643D0B6F1006F18D021
:10260000B6F1805F29D0B6F1C05F11D10CE0366819
:1026100016F0C06635D0B6F1007F0AD0B6F1806FF3
:102620001BD0B6F1C06F03D10868400227D5204601
:10263000F0BD2846F0BD08684002106800F03F0079
:1026400028D5B4FBF0F01168C1F38811414310683C
:10265000C0F30270B1FBF0F0F0BD086840020868FA
:1026600000F03F0019D5B4FBF0F00A68C2F38812FD
:1026700042430868C0F30270B2FBF0F0F0BD1846A8
:10268000F0BD10684002D6D5106800F03F00B5FBE1
:10269000F0F0D8E7B3FBF0F0D5E7B3FBF0F0E4E7F8
:1026A0008C3802400080BB0000127A002DE9F84F00
:1026B0000446007800268D4DC00708D0286861695F
:1026C00020F0C06008432860606900B901262078C6
:1026D000800708D52868A16920F0C0500843286009
:1026E000A06900B9012620784FF0000A00074FF0DA
:1026F000010B55D57D484C38016841F0805101608F
:102700000068DFF8EC8100F080500090D8F80010ED
:1027100041F48071C8F80010FFF7C4F9074604E0DF
:10272000FFF7C0F9C01B02286FD8D8F80000C00519
:10273000F6D56E4F1C3F386810F440701FD0A18B47
:1027400001F4407181421AD0386820F44071694820
:10275000C0F800B0C0F800A039603868C0070ED0DB
:10276000FFF7A0F9804641F2883905E0FFF79AF9B2
:10277000A0EB0801494548D838688007F6D5E169DB
:102780005A48C1F301228438032A36D0016821F463
:10279000F81101603868A18BC1F30B010843386060
:1027A0002078DFF85491400703D594F83810C9F821
:1027B000E0112078C106514805D50168626A21F40C
:1027C00040011143016021784FF00067890609D567
:1027D0000168A26A21F0006111430160A16AB94257
:1027E00000D101262178490605D50168226A21F029
:1027F00080511143016066B908E00268404B22F441
:10280000F81219400A430260C4E754E020688028A7
:1028100057D15046DFF8ECA0CAF86800FFF742F93C
:10282000324E80468C3E05E0FFF73CF9A0EB0800F5
:10283000022840D830680001F6D4616BC9F8D8107E
:1028400020683149C20701D062697AB1820701D597
:10285000A2695AB1820602D5A26ABA4206D04006DF
:102860000FD5206A68B9A06AB8420AD1D4E901023A
:1028700040EA8210227B237C120642EA0372104354
:102880000860207800060AD5D4E9010240EA8210E7
:10289000227B237C120642EA037210430860CAF8C6
:1028A00068B0FFF7FFF8074608E000BFFFF7FAF847
:1028B000C01B022802D90320BDE8F88F3068000150
:1028C000F4D52088C00505D52868E16A20F00040CD
:1028D000084328602088800505D52868216B20F4EE
:1028E0000040084328600020E6E700008C380240E2
:1028F00000700040400E47420010474294380240AA
:10290000FFFCFF0F00004742843802402DE9F047EA
:102910000E46050065D0DFF81481D8F80000F7B244
:1029200000F00F00B04207D288F80070D8F800001D
:1029300000F00F00B04254D128683D4C810712D5F9
:10294000400703D5206840F4E05020602878000755
:1029500003D5206840F4604020602068A96820F01A
:10296000F000084320602878C0072DD030496868FF
:102970000839012812D0022813D0032811D0096881
:10298000890700292DDA216821F003010143216024
:10299000FFF788F8814641F2883A0EE0096889031A
:1029A000EFE709688901ECE7FFF77CF8A0EB090184
:1029B000514502D90320BDE8F0872068696800F01E
:1029C0000C00B0EB810FEFD1D8F80010404601F0B9
:1029D0000F01B14207D90770006800F00F00B04244
:1029E00001D00120E7E72878400705D52068E9688D
:1029F00020F4E050084320602878000706D52068BE
:102A0000296920F4604040EAC100206000F036F8F7
:102A10002168084AC1F30311515CC84006490860A7
:102A20000020FFF75FFD0020C5E70000003C0240EA
:102A300008380240B86A00084000002004480549F0
:102A400000680968044AC1F38221515CC84070479C
:102A50004000002008380240C86A000804480549C0
:102A600000680968044AC1F34231515CC8407047AC
:102A70004000002008380240C86A0008154810B518
:102A8000006810F00C02144813D04110042A0FD033
:102A9000082A0ED10F4C241F2268236802F03F023F
:102AA0005B0207D52068C0F38810A0FB010106E097
:102AB000084610BD2168C1F38811A1FB0001002365
:102AC000FDF79CFB2168C1F30141491C4900B0FBA3
:102AD000F1F010BD083802400024F4002DE9F84F51
:102AE00005460078DFF800B3C04CC0074AD0DBF8D9
:102AF00000105846C1F38101012908D00068C0F3D5
:102B0000810002280AD1201D0068400206D52068F5
:102B1000800337D56868002872D033E06868B0F564
:102B2000803F10D0B0F5A02F206810D020F4803066
:102B30002060206820F4802020606868A8B1FEF73B
:102B4000B1FF06460DE0206840F48030F4E740F421
:102B500080202060F7E700BFFEF7A4FF801B6428F9
:102B60006FD820688003F7D50CE0FEF79BFF064680
:102B700005E000BFFEF796FF801B6428F0D82068B0
:102B80008003F7D42878DFF8688280074FF00009C7
:102B900040D5DBF80010584611F00C0F09D0006842
:102BA000C0F3810002280BD18F48001F006840024B
:102BB00006D42068800715D5E868012820D111E0E7
:102BC000E868B8B10120C8F80000FEF76BFF0646C0
:102BD00005E000BFFEF766FF801B0228C0D8206812
:102BE0008007F7D52068296920F0F80040EAC10085
:102BF00020600FE0C8F80090FEF754FF064606E09C
:102C0000EFE000BFFEF74EFF801B022819D82068B6
:102C10008007F7D42878000722D5734E7548696974
:102C20006C3679B101210160FEF73CFF074604E0F4
:102C3000FEF738FFC01B022803D830688007F7D59D
:102C40000EE089E0C0F80090FEF72CFF074604E094
:102C5000FEF728FFC01B02287ED830688007F7D413
:102C60002878400768D5DFF880A100270AF1380AE4
:102C7000DAF80000C0000BD4DAF8001041F08051FF
:102C8000CAF80010DAF80000012700F08050009028
:102C9000594E3068C00510D4306840F48070306000
:102CA000FEF700FF009005E0FEF7FCFE0099401AD9
:102CB000022851D83068C005F6D54B4EA868683652
:102CC00001280FD00528306810D020F001003060B6
:102CD000306820F004003060A868B8B1FEF7E2FE6A
:102CE00000900FE0306840F00100F4E740F004008D
:102CF0003060F7E7FEF7D6FE0099411A41F28830BE
:102D0000814266D830688007F4D50EE0FEF7CAFE2F
:102D1000009007E0FEF7C6FE0099411A41F28830A4
:102D2000814256D830688007F4D42FB1DAF8001009
:102D300021F08051CAF80010A869D0B3DBF8001068
:102D4000C1F3810102294CD00228484607D0C8F8B7
:102D50006000FEF7A7FE00E03BE005463CE047468A
:102D6000C8F86000FEF79EFE064604E0FEF79AFEF5
:102D7000801B02282DD820688001F7D4F5E90701CF
:102D80000843E9681D4A490802EB0141AA6841EA83
:102D900082110843297C40EA0160297D40EA0171E3
:102DA0001148001F016001203866FEF77BFE0546D2
:102DB00005E014E0FEF776FE401B022809D82068E3
:102DC0008001F7D50BE000BFFEF76CFE401B022828
:102DD00002D90320BDE8F88F20688001F4D40020D8
:102DE000F8E70120F6E7000008380240003802400A
:102DF00000004742800E4742007000400000FFFF85
:102E0000704710B5044600684168C943890601D47B
:102E1000082004E04068C04340060AD41020A060A7
:102E2000042060712046FFF7EBFF21686FF060001F
:102E3000486020684168C943C90710D1016821F082
:102E40000801016020688168E1606079042806D08B
:102E50000120607100202071204600F039F810BD7B
:102E600070B5040003D06079002510B105E00120A1
:102E700070BD2571204600F00DF8022060712068B9
:102E8000016841F00401016001206071A56000202B
:102E900070BD000008B500680B49884212D10B488C
:102EA000016841F0400101600068002200F040002C
:102EB000009011465020FFF75BFBBDE80840502012
:102EC000FFF748BB08BD0000000806503438024038
:102ED000704710B5401EB0F1807F01D3012010BDB6
:102EE0004FF0E02460610F21601701F0A2F800208C
:102EF000A06107202061002010BD70B590F83C2033
:102F0000012A19D0012400F83C4F0222427050F8E7
:102F10003C3C5A689D6822F070060A684968324352
:102F200025F0800529435A6050F83C2C916044708C
:102F300000210170084670BD022070BD2DE9F041EE
:102F40000D46040003D094F83D0018B108E00120BC
:102F5000BDE8F081002084F83C00204600F03AF8FB
:102F6000022084F83D002068816844F20702914302
:102F70008160211D206800F0CBFD22689068916976
:102F8000166A2B68AF69034340F20330814341EA7C
:102F90000721A868EF6908434FF6FC418843E968B8
:102FA00040EA0720014328692F6A000140EA073000
:102FB000084369686D6926F0AA0646EA05152943A3
:102FC00093602268906120680162012084F83D00CE
:102FD0000020BDE770B586B0044614216846FDF7B1
:102FE00045F91E491C4E256800231C4A103902244D
:102FF0001B48B54211D1156845F0020515601268ED
:1030000002F0020205920A6842F002020A600968B0
:1030100001F002010591302113E0124EB54218D1A2
:10302000156845F004051560126802F00402059267
:103030000A6842F002020A60096801F00201059183
:10304000C0210091CDE90143CDE903346946FEF783
:1030500061FC06B070BD0000000400404038024032
:10306000000402400008004010B50446006891B119
:10307000042904D00122002100F0AEFD20680122C5
:103080005FF0040100F0A8FD2068016841F0010133
:103090000160002010BD01220021F3E770B504009B
:1030A00004D094F83900002510B106E0012070BD6D
:1030B00084F83850204600F023F8242084F83900A2
:1030C0002068C16821F40051C160204600F0F0FD85
:1030D0002068016921F4904101612068416921F073
:1030E0002A0141612068C16841F40051C160E56373
:1030F000202084F8390084F83A00002070BD0000D8
:1031000010B586B0044614216846FDF7AFF814499F
:103110002068884221D11348016841F01001016004
:10312000006800F0100005900E481438016841F066
:10313000010101600068694600F0010005904FF44C
:10314000C0600090022001900120029003200390B3
:10315000072004900448FEF7DDFB06B010BD000018
:103160000010014044380240000002402DE9F843BD
:10317000044690F839001F4616460D46202850D1C7
:10318000A5B19EB194F8380001284AD0012084F8F6
:1031900038004FF00008C4F83C80212084F8390042
:1031A000FEF780FCA6848146E68426E00120BDE887
:1031B000F883E08C401EE084A0684B46B0F5805F49
:1031C0004FF000024FF080012046009703D000F03E
:1031D000C5FEE8B90DE000F0C1FEC8B92888216835
:1031E000C0F308004860206908B16D1C05E0AD1C03
:1031F00003E0216815F8010B4860E08C0028D8D165
:103200004B46002240212046009700F0A7FE08B15F
:103210000320CCE7202084F8390084F8388000208F
:10322000C5E70220C3E7FEE701684A69D2435205B9
:103230000FD46FF480624A61002140F8301F2022D1
:1032400042738173026942F004020261017301203A
:1032500070470020704700002DE9F84304460068DD
:103260000D46DDE9089701689846164641F48071DD
:1032700001604B4600224FF001112046009700F0FC
:103280005BF8E0B9216805F0FE0008613B464A465C
:103290001549204600F084F888B9206841698069A2
:1032A00000903A464946204600F0C5F850B1206CDF
:1032B000042804D12068016841F4007101600120F4
:1032C000BDE8F883F5B2B8F1010F09D02168300AE2
:1032D00008613A464946204600F0ADF80028E6D19C
:1032E000206805610020EBE70200010070B516467A
:1032F0000D4604460DE02046FFF796FF08B1012079
:1033000070BD681C05D0FEF7CDFB801BA84207D816
:1033100035B120684069C0434007ECD4002070BD3F
:10332000002044F8300F20216173A073216941F01F
:10333000200121612073E2E72DE9F0471E46904607
:103340000D460446C1F30747DDF8209008E0701CE5
:1033500006D0FEF7A7FBA0EB0900B0420FD876B16C
:103360002068012F18D0806925EA00000004000CB5
:1033700014D000214145EAD00020BDE8F0870020AC
:1033800044F8300F20216173A073216941F02001BE
:10339000216120730120F0E74069E5E70121E9E7B9
:1033A0002DE9F0479A4691460E46044600254FF017
:1033B0002008C1F3074725E020684069C043400565
:1033C00014D42068016841F40071016021686FF431
:1033D00080604861256384F83D8084F83E50206C0D
:1033E00040F00400206484F83C501FE0B9F1FF3F36
:1033F00008D0FEF757FBA0EB0A0149450CD8B9F1FC
:10340000000F09D02068012F13D0806926EA000040
:103410000004000C0BD0CFE744F8305F84F80D8037
:10342000A573206940F02000206125730120BDE8CC
:10343000F0874069EAE770B516460D4604460DE090
:103440002046FFF7F1FE08B1012070BD681C05D0D1
:10345000FEF728FB801BA84207D835B120684069D9
:10346000C0430006ECD4002070BD002044F8300FAB
:1034700020216173A073216941F020012161207333
:10348000E2E7000070B515490268154B4FF0402483
:103490008A4201D11A4600E02246D568C26A961CCB
:1034A000C6621580428E521E4286428E002A14D178
:1034B00002688A4201D1194600E02146496821F09C
:1034C000600100D023465960418D002905D14FF09D
:1034D000010180F84110FEF773FE70BD0038004016
:1034E0000034004070B5416A144B8A1C4262056882
:1034F0000988134A4FF040249D4201D1154600E04F
:103500002546E960418D491E4185418D002914D130
:103510000168994201D1114600E02146496821F035
:10352000A00100D022465160418E002905D14FF004
:10353000010180F84110FEF743FE70BD00380040E5
:10354000003400402DE9F0470546846BC06900282F
:1035500056D1E06BDFF8AC802B4E4FF000094FF0F6
:10356000010A4FF04027A84223D12068C169C1F366
:103570000121022907D0C16911F4407F03D04168BD
:1035800021F001010BE0404501D1304600E0384612
:10359000406820F0010101D1304600E0384641602A
:1035A000A4F83290608D20B984F841A02046FEF73F
:1035B00007FEA06BA84223D12068C169C1F3012195
:1035C000022907D0C16911F4407F03D0404506D1DC
:1035D000304605E0416821F00201416006E03846CE
:1035E000406820F0020000D03E467060A4F82A90A7
:1035F000608E002804D184F841A02046FEF7E0FD4B
:10360000BDE8F087003800400034004030B4806BE3
:1036100001684A6822F003024A600F4A04680F49B1
:103620004FF04023944201D10A4600E01A46526806
:1036300022F0030200D019464A604FF00001418594
:1036400041864FF0010180F84110416C41F00801C2
:10365000416430BCFEF7B6BD003800400034004085
:1036600010B5806BFEF7ADFD10BD7CB5016804465A
:103670008868009094F841000125042834D100980E
:10368000C00718D04868C043400614D4C968204613
:10369000E26A1180E16A891CE162618E491E6186DD
:1036A000618E41B901684A6822F060024A6080F880
:1036B0004150FEF7F3FE0098400615D5206841689A
:1036C000C943890610D4416821F060014160206837
:1036D000C1688068019084F84150606C40F002003D
:1036E00060642046FEF76EFD94F84100032834D153
:1036F0000098800719D521684868C043000614D493
:10370000626A20461288CA60616A891C6162618DA2
:10371000491E6185618D41B901684A6822F0A002A5
:103720004A6080F84150FEF7BAFE0098000714D5B1
:1037300020684168C94389060FD4416821F0A0017F
:10374000416020688068009084F84150606C40F0CF
:10375000040060642046FEF735FD7CBD7FB5002483
:1037600012480094019402940F49039401604FF4AD
:103770008031C0E901140461047680F820400C49CE
:10378000C0E90A140125C561C46080F83040456174
:10379000FDF71FFE0920CDE90005694602940348A4
:1037A000FDF76EFD7FBD0000002001403C0C0020B5
:1037B0000100000F2DE9F04F87B014216846FCF797
:1037C00055FD5C480024016841F004010160016876
:1037D00001F004010591016841F080010160016878
:1037E00001F080010591016841F00101016001686B
:1037F00001F001010591016841F0020101600168D9
:1038000001F002010591016841F0080101600068C2
:103810004FF4015500F00800059000222946464863
:10382000FEF73BF94FF4404A002251464348FEF769
:1038300034F9002204214248FEF72FF900950125B2
:10384000CDE9015469463C480394FEF763F84CF215
:103850000300CDE90004694637480294FEF75AF8A0
:103860004FF00308374ECDF80080DFF8DCB0CDE92B
:10387000016469465846FEF74DF804274FF00209E7
:103880000097CDE901940520CDE9034069465846EB
:10389000FEF740F8CDE90074694628480294FEF727
:1038A00039F86803CDE90006694602942348FEF71B
:1038B00031F8CDF800A0CDE9015469461F480394C2
:1038C000FEF728F84FF4C050CDE9000902940A2011
:1038D000CDE9038069465846FEF71CF82803CDE978
:1038E0000006694602941448FEF714F80097CDE9E3
:1038F0000154694612480394FEF70CF80022114661
:103900000620FEF735FE0620FEF724FE00221146B3
:103910000720FEF72DFE0720FEF71CFE00221146B1
:103920002820FEF725FE2820FEF714FE07B0BDE88C
:10393000F08F0000303802400008024000040240CE
:10394000000C0240000011100000024010B58CB0C5
:1039500024216846FCF78AFC002412480994104987
:103960000A94C0E900144FF6FF71C0E902410461F6
:1039700084610120CDE90004CDE902040A2104910B
:10398000CDE90540CDE9074169460648FFF7D6FA7B
:10399000099409A903480A94FFF7AFFA0CB010BDC7
:1039A00000040040840D002010B58CB0242168462E
:1039B000FCF75CFC00241248099410490A94C0E901
:1039C00000144FF6FF71C0E90241046184610120D7
:1039D000CDE90004CDE902040A210491CDE90540B6
:1039E000CDE9074169460648FFF7A8FA099409A9F5
:1039F00003480A94FFF781FA0CB010BD000800409C
:103A0000C40D0020FEE77047704700000148FFF733
:103A1000F8B90000740D00207047FEF741BD0000AA
:103A200030B5A3B034216846FCF720FC14211CA853
:103A3000FCF71CFC3C210DA8FCF718FC1D480025D8
:103A4000016841F080510160006800F080502190D1
:103A50001948016841F4404101600068022400F403
:103A60004040219001200090000401908001CDE9A8
:103A70000640042008906420CDE909040820CDE91F
:103A80000B046846FFF72AF81CA90F2081E83100D3
:103A9000E002CDE91F0503211CA8FEF737FF212016
:103AA00017950D90200612900DA8FEF7FFFD23B08C
:103AB00030BD0000403802400070004010480168EE
:103AC00041F4700101600F48016841F0010101609B
:103AD0000C4A00210832116002680B4B1A40026048
:103AE000031D0A4A1A60026822F480220260054817
:103AF0000C300160024958068039086070470000A8
:103B000088ED00E000380240FFFFF6FE1030002490
:103B1000F0B50268254C264D264E274F274B4FF017
:103B2000804CA04209D0604507D0A84205D0B042E1
:103B300003D0B84201D0984204D122F0700E4A68F6
:103B400042EA0E02A0421BD0604519D0A84217D00D
:103B5000B04215D0B84213D0984211D0184DA842A7
:103B60000ED0184DA8420BD0174DA84208D0174DC3
:103B7000A84205D0164DA84202D0164DA84203D146
:103B800022F44075CA682A434D6922F080022A4314
:103B900002608A68C2620A688262A04201D09842CA
:103BA00001D10969016301214161F0BD00000140BB
:103BB0000004004000080040000C004000040140E8
:103BC000004001400044014000480140001800400E
:103BD000001C00400020004010B501F01F0301212F
:103BE000046A99408C430462016A9A40114301625D
:103BF00010BD000070B50B49086000F029F80A20DC
:103C0000FDF768FE084D0024204635F8141001F039
:103C10001BF8641CE4B20A2CF6D3BDE87040002007
:103C200000F02CB814000020FA69000810B528B183
:103C30008021002001F008F8802104E01B210020F1
:103C400001F002F81B21BDE81040012000F0FCBF8C
:103C500000210F2000F0F8BF303010B580B27F286F
:103C600000D97F2040F480742146022000F0ECFF50
:103C70002146BDE81040032000F0E6BF18B1152131
:103C8000042000F0E1BF1221FAE710B51F2800D987
:103C90001F2000F01F0040F480742146002000F037
:103CA000D3FF2146BDE81040012000F0CDBF000049
:103CB0002DE9F041044600680169E26821F44051B1
:103CC000114301612169A068E269084361691143F8
:103CD00022680843D16849F20C6399430143D160DB
:103CE00020684169A26921F4407111434161E26990
:103CF0006425B2F5004F9748974922684FF0320883
:103D00003FD08A4201D082427CD1FEF7A7FE00EB71
:103D1000C00101EB001061688900B0FBF1F6FEF70D
:103D20009DFE00EBC00101EB001061688900B0FB53
:103D3000F1F0B0FBF5F06FF01801484306EB80019D
:103D400008EB0110B0FBF5F000F0F006FEF786FE80
:103D500000EBC00101EB001061688900B0FBF1F0DD
:103D6000B0FBF5F006EB0016FEF778FE00EBC001A5
:103D700001EB001061688900B0FBF1F7FEF76EFE01
:103D8000D2E08A4201D082423DD1FEF767FE00EBCD
:103D9000C00101EB001061684900B0FBF1F0B0FB1D
:103DA000F5F00601FEF75AFE00EBC00101EB001032
:103DB00061684900B0FBF1F7FEF750FE00EBC0016F
:103DC00001EB001061684900B0FBF1F0B0FBF5F0C9
:103DD0006FF01801484307EB800108EBC100B0FB0E
:103DE000F5F000F0F80006EB4006FEF737FE00EBBA
:103DF000C00101EB001061684900B0FBF1F7FEF76C
:103E00002DFE3CE055E0FEF719FE00EBC00101EB92
:103E1000001061684900B0FBF1F0B0FBF5F006015D
:103E2000FEF70CFE00EBC00101EB001061684900D9
:103E3000B0FBF1F7FEF702FE00EBC00101EB001052
:103E400061684900B0FBF1F0B0FBF5F06FF01801CC
:103E5000484307EB800108EBC100B0FBF5F000F030
:103E6000F80006EB4006FEF7E9FD00EBC00101EBB0
:103E7000001061684900B0FBF1F7FEF7DFFD00EBD1
:103E8000C00101EB001061684900B0FBF1F0B0FB2C
:103E9000F5F06FF01801484307EB800108EBC10013
:103EA000B0FBF5F000F00700216830448860BDE801
:103EB000F081FEF7C3FD00EBC00101EB001061686B
:103EC0008900B0FBF1F6FEF7B9FD00EBC00101EB94
:103ED000001061688900B0FBF1F0B0FBF5F06FF005
:103EE0001801484306EB800108EB0110B0FBF5F028
:103EF00000F0F006FEF7A2FD00EBC00101EB0010A0
:103F000061688900B0FBF1F0B0FBF5F006EB00163C
:103F1000FEF794FD00EBC00101EB00106168890021
:103F2000B0FBF1F7FEF78AFD00EBC00101EB0010DA
:103F300061688900B0FBF1F0B0FBF5F06FF018019B
:103F4000484307EB800108EB0110B0FBF5F000F0EF
:103F50000F00A9E700140140001001402DE9F041D5
:103F6000984617460E460446069D1DE0681C1BD069
:103F70002DB1FDF797FDA0EB0800A84214D92068E9
:103F8000C16821F4D071C1602068416921F001014C
:103F90004161202084F8390084F83A00002084F838
:103FA00038000320BDE8F0812068006836EA000090
:103FB00004D00020B842D9D00020F3E70120F9E76F
:103FC000FEE700000FB4054B10B503A9044A0298A0
:103FD00000F09EFA10BC5DF814FB0000814C000854
:103FE0002C0000200FB4084B10B504A902AA0398B6
:103FF00000F08EFA044602A9002000F020FE2046C0
:1040000010BC5DF814FB00003F4C000841000802A2
:1040100018BF04200A0E18BF40F001004FF07F4285
:1040200032EA010108BF40F00200012808BF052064
:1040300070470907090E002804DB00F1E02080F832
:104040000014704700F00F0000F1E02080F8141D0C
:104050007047000000B510EE101A2DED028B81B0F4
:10406000524A6846B2EB410F2ED94FF0E640B0EB12
:10407000410F94BF00204FF0FF3000900098B0EE49
:10408000408A00286ADB10F0010F4BD068EE080A66
:104090009FED471A9FED470A00EE810A9FED461AF1
:1040A00010F0020F00EE801AB7EE000A00EE810A4F
:1040B00002BF01B0BDEC028B00BD00BF01B0B1EE8C
:1040C000400ABDEC028B00BD3C4B21F00042934204
:1040D00041D911F0004FDFED3A0A20EE201ADFED52
:1040E000390A19BF31EE601A71EE200A31EE201A3A
:1040F00071EE600ABDEEE01A11EE100A9FED321A61
:1041000000F0030000EEC10A9FED301A009000EEAF
:10411000C10A9FED2F1A00EEC10A9FED2E1A00EE84
:10412000C10AABE728EE080A9FED2B1ADFED2B0A38
:1041300010F0020F40EE410A9FED291A00EE201AFE
:1041400061EE000AB0EE480A08EE200AB6D101B0CE
:10415000BDEC028B00BD00F059F88FE718EE100A95
:104160004000B0F17F4F0DD218EE100AFFF74EFF5E
:10417000042808BF00F042F8B0EE480A01B0BDECD8
:10418000028B00BD09D1012000F0FAF801B0BDECAE
:10419000028B5DF804EB00F029B801B0B0EE480ADC
:1041A000BDEC028B5DF804EB00F01CB8B61F927EEC
:1041B000B93AB2BACA9F2A3DDDFFFFBE490E494651
:1041C00083F9223F0000004B0000C93F00A0FD39E9
:1041D0000020A2331A61342C336D4C39DA82083C4A
:1041E000A0AA2ABE30EE000A70470000DFED020AE6
:1041F00080EEA00A70470000000000009FED020A58
:1042000020EE000A70470000000000102DE9F001C8
:104210004FF07F42B2EB410F9FBF4FF0FF31016083
:10422000BDE8F00170474FF0004242EA0123C1F3BC
:10423000C752783A551112F01F0C434CCCF12006AE
:104240007C44C1F3C752A2F178024FEA621204EB38
:10425000820254F8254008BFD2E9015612D05568B1
:1042600004FA0CF425FA06F73C43976805FA0CF5B6
:1042700027FA06F8D26807FA0CFCF24045EA08056E
:104280004CEA0206A4FB034CA5FB0352A6FB036306
:104290001D449D4234BF012600261319334416B134
:1042A000934202D903E0934201D2012200E00022AE
:1042B000624402F1200C9206DC0C42EA443200EE29
:1042C000102A5B03DFED210AF8EEC01A00EE103A67
:1042D0004FEA9C1C11F0004FB8EE400AC0F800C035
:1042E00020EE201A00EE105ADFED190AB8EE400A4F
:1042F00020EE200A71EE810A70EE800A10EE902AFC
:1043000002F500626FF30B0200EE902A70EEE11AE4
:1043100031EEC11ADFED101A30EE411A9FED0D0A91
:1043200020EE800A01EE210A9FED0C1A00EE810AB0
:1043300004BFBDE8F0017047CCF180510160BDE8D9
:10434000F001B1EE400A70478C28000000000036F2
:104350000000802C22AAFD29DB0FC92F0000C92FE5
:1043600002E008C8121F08C1002AFAD1704770473E
:10437000002001E001C1121F002AFBD1704700009C
:104380000149086070470000440000202DE9FF5FEC
:1043900082B00021DDE90430020DDDF840B00343B6
:1043A00018D044F61050A2F2FF324243151411986F
:1043B00001281FD0A5EB0B00401C5FEA000A4FF05C
:1043C00000064E4FDFF83891B046504615D5CAF179
:1043D000000413E0119801244AA3012801D16FEAD7
:1043E0000B010298119AC0E90031C0E9024206B0FF
:1043F000BDE8F09FCBF10000DFE704460021404A12
:10440000491842EB0450CDE9001012E0E00707D054
:1044100032463B4640464946FCF7EEF88046894620
:1044200032463B4610461946FCF7E6F806460F466C
:104430006410002CEAD1DDE90401DDE90023BAF1C2
:10444000000F06DAFCF7D8F842464B46FCF7D4F8E2
:1044500005E0FBF716FF42464B46FBF712FF04460A
:104460000E460022284BFCF751F903D84FF0FF30DD
:10447000014607E00022254B20463146FCF715F89F
:10448000FCF72CF9102409E0002C0ADB0A22002397
:10449000FBF7B4FE039B30321A55641E50EA01024A
:1044A000F2D1641C039AC4F111031444119A012A35
:1044B00003D0012208430DD10AE0084304D00020B4
:1044C0004FF0110B119072E7A3EB0B056D1E0DE081
:1044D0005B4504DD4FF0000205F1010504E003DA5D
:1044E0004FF00002A5F10105002AECD002981199C5
:1044F000C0E90231C0E9004579E70000000014403E
:104500000000F03F300000000000F0430000E03FFA
:104510002DE9FF4F95B09B468946064600250FE2E0
:10452000252877D100242746F84A0121059400E088
:10453000044316F8013F203B01FA03F01042F7D183
:1045400030782A2811D06FF02F033078A0F1300294
:10455000092A16D8059A44F0020402EB820203EB02
:1045600042021044761C0590EFE759F8042B05929F
:10457000002A03DA504244F40054059044F0020447
:10458000761C30782E2816D116F8010F44F004045A
:104590002A280DD06FF02F023078A0F13003092BBC
:1045A00009D807EB870302EB4303C718761CF3E730
:1045B00059F8047B761C30786C280FD006DC4C2828
:1045C00017D068280DD06A2814D104E0742810D0C0
:1045D0007A280FD10DE044F400140AE044F480146A
:1045E00001E044F440147278824202D104F5801450
:1045F000761C761C307866280BD013DC582877D0D0
:1046000009DC002875D04528F6D04628F4D0472884
:104610001AD19DE118E0632835D0642879D0652847
:1046200012D195E1702873D008DC6728F1D0692891
:104630006FD06E280DD06F2806D1B5E073282CD02E
:10464000752875D0782874D05A46179990476D1CF4
:1046500075E1C4F30250022809D003280DD0D9F81F
:10466000001004280DD00D6009F1040967E1D9F8A4
:104670000010EA17C1E90052F6E7D9F800100D80E2
:10468000F2E70D70F0E719F8041B8DF80010002018
:104690008DF80100EA46012003E059F804AB4FF021
:1046A000FF3061074FF0000102D40DE008F1010175
:1046B0008846B9420FDA8045F8DB1AF8081000295D
:1046C000F4D108E008F1010188468142FADB1AF8CA
:1046D00008100029F6D105985B46A0EB0807214693
:1046E0003846179A00F094FA284400EB080507E0D2
:1046F0004DE029E10DE01AF8010B5A461799904751
:10470000B8F10108F7D25B4621463846179A13E103
:1047100042E00A220092C4F302524FF0000A022A39
:1047200008D059F804CB032A4FEAEC710AD00DE007
:1047300029E02AE009F1070121F00702F2E802C1AD
:10474000914609E00FFA8CFC4FEAEC71042A03D180
:104750004FFA8CFC4FEAEC71002907DA0A46002177
:10476000DCF1000C61EB02012D2202E0220504D5F0
:104770002B228DF80420012203E0E20701D0202241
:10478000F7E7904659E00A2102E010220DE01021DF
:104790004FF0000A00910BE010224FF0000A44F0A5
:1047A00004040827009203E008224FF0000A009258
:1047B000C4F30252022A05D059F804CB0021032A7F
:1047C00008D009E009F1070121F00702F2E802C16F
:1047D000914605E01FFA8CFC042A01D10CF0FF0C75
:1047E0004FF00008220728D5702806D0009B83F0E0
:1047F000100353EA0A0305D00EE040228DF804208E
:10480000012208E05CEA010206D030228DF8042083
:104810008DF8050002229046009B83F0080353EABE
:104820000A030AD15CEA010201D1620705D53022F0
:104830008DF804204FF001087F1E582804D034A0C2
:1048400003900EA802900DE036A0F9E753466046AB
:10485000009AFBF7D3FC84460398825C0298401EC2
:10486000029002705CEA0100F0D1029806A9081AD1
:1048700000F1200A600702D524F4803400E001270B
:10488000574502DDA7EB0A0000E0002000EB0A011B
:10489000009005984144401A0590E00306D45B4619
:1048A0002146179A059800F0B3F90544002706E061
:1048B00001A85A46C05D179990476D1C7F1C47455B
:1048C000F6DBE0030CD55B462146179A059800F00D
:1048D0009FF9054404E030205A46179990476D1C13
:1048E0000099481E00900029F5DC08E00298029922
:1048F0005A460078491C0291179990476D1CBAF1ED
:104900000001AAF1010AF1DC65E1000009280100BB
:104910003031323334353637383961626364656635
:1049200000000000303132333435363738394142F7
:10493000434445460000000000F058F90544761C49
:10494000307800287FF4ECAD19B02846BDE8F08F30
:10495000620700D4062709F1070222F0070CFCE8E1
:104960000223E14603F000485FEA080C02D00FF290
:10497000702C0DE05FEA045C02D50FF2682C07E0B2
:104980005FEAC47C02D00FF2602C01E0AFF2700C41
:104990004FF0FF3823F00043CDF850C065280CD00D
:1049A00006DC452809D046281DD047283DD13DE0EA
:1049B000662818D067287ED138E00021112F01DB4E
:1049C000112000E0781CCDE9000106A90EA8FFF730
:1049D000DDFCDDE90F010E9A03910021009207F141
:1049E000010A04914DE04FF000400097CDE901101D
:1049F00006A90EA8FFF7CAFCDDE90F0203920E9B81
:104A000011990022DDF80CA00093049211B9791CD1
:104A100000EB010AB7EB0A0004D4C0F1FF3007F144
:104A2000010A0490AAEB0700019044E0012F00DA8C
:104A300001270021112F01DD112000E03846CDE9CA
:104A4000000106A90EA8FFF7A1FCDDE90F010E9AEF
:104A50000391002104910092BA4621070CD40399D6
:104A6000514500DA8A46BAF1010F05DD009AAAF134
:104A70000101515C302908D0B84202DA10F1040F6C
:104A800006DA0121CDE9011015E0AAF10101E9E7FB
:104A9000002805DC049901440491AAEB000102E01E
:104AA000411C514500DD8A460499401A401C019082
:104AB0004FF000400290200704D40198504501DBDC
:104AC000CDF8048000208DF84F0002980DF14F07BB
:104AD000B0F1004F25D02B200E9002984FF0020825
:104AE00000280CDA404202902D200E9007E00A21A7
:104AF0000298FBF748FC3031029007F8011DB8F12D
:104B00000001A8F10108F2DC02980028EFD1791E1B
:104B10000E980870307800F0200040F0450007F84B
:104B2000020D12A8C01B00F107081498007800B10C
:104B3000012000EB0A01019801EBE0710598414466
:104B4000401A401E0590E00306D45B462146179AA2
:104B5000059800F05DF805441498007818B15A469D
:104B6000179990476D1CE00324D55B462146179AA0
:104B7000059800F04DF805441CE00498002807DB78
:104B8000DDE90301884203DD0098405C179901E0EC
:104B9000179930205A469047049805F10105401CAA
:104BA00004900198401E019004D12E205A46179976
:104BB00090476D1CBAF10001AAF1010ADDDC05E0A5
:104BC00017F8010B5A46179990476D1CB8F1000170
:104BD000A8F10108F4DC5B462146179A0598ABE67C
:104BE0002D0000002B000000200000002DE9F04106
:104BF000044600251E461746880404D405E03946BD
:104C00002020B0476D1C641EF9D52846BDE8F08110
:104C10002DE9F041044600251E469046C80301D503
:104C2000302700E02027880404D505E041463846B7
:104C3000B0476D1C641EF9D52846BDE8F0810A68AE
:104C4000531C0B60107070471FB54006020EC1F375
:104C500000200243FF20B1FBF0F300FB13108DF89E
:104C60000C000A23012103A88DE80B0003480B4622
:104C700034210068FCF7D6FF1FBD0000140000209F
:104C800013B54FF6FF73012269460248FEF76EFA2C
:104C900000981CBD040E00202DED048B88B0FDF79C
:104CA00007FCFEF7BDFEFEF785FDFF480024016806
:104CB00041F4001101600068224600F400100090E9
:104CC00021460E20FDF754FC0E20FDF743FC002288
:104CD00011460F20FDF74CFC0F20FDF73BFCF44E76
:104CE000F248DFF8D0833060C6E901840514C6E9D4
:104CF00003457461B461F46130463462FCF7D8FE58
:104D000006F15407EC483860C7E90184C7E9034558
:104D10007C61BC61FC6138463C62FCF7C9FE06F56B
:104D2000C070E64901604FF4E131C0E901140C2183
:104D3000C460C0E904418461C461FEF7AFF906F1C3
:104D4000A800DF49C0E9001410210125C0E90215BF
:104D50004BF68031C0E90441C0E906450562FDF724
:104D600033FAFEF7F3FDFEF71FFE06F1F001D5481A
:104D700008600846FEF774F8FEF7F0FC0221D248FE
:104D8000FCF786FE01280DD0D0A0FFF71BF9A6F195
:104D90004800FCF7CBFB0521A6F14800FCF774FBAB
:104DA000B0B119E001220421CB48FCF776FE4FF4A4
:104DB000FA70FCF78FFDBFF34F8FC8480168C84AEF
:104DC00001F4E06111430160BFF34F8F00BFFDE7C5
:104DD000B7484838FCF7FAFAC248876000F58260A5
:104DE000866000F075FA0021BF4800F063FA1422D3
:104DF0000221BD4800F0F4FABC4E0095BCA1D6E9F2
:104E00000023B94800F07DFBB74800F0EFFAB54841
:104E100000F05EFA0021B34800F04CFA142202219F
:104E2000B04800F0DDFA0095D6E90023B3A1AD4803
:104E300000F067FBAB4800F0D9FAAA480021C0385F
:104E4000FEF712F9A74800218038FEF70DF9AD48AA
:104E50000460AD4804609648FEF7CCFE0020FEF7E3
:104E6000E5FE0020FEF70AFF1F20FEF70EFF4F2091
:104E7000FEF7F2FEA5490020A1F5007221F81040CE
:104E800022F81040401C80B2FF28F7D90120FCF71F
:104E90000BF828220A21934800F0A2FA934F0095BC
:104EA0009BA1D7E900238F4800F02BFB8D4800F031
:104EB0009DFA4FF48078424698494FF47A70DFEDBE
:104EC000980A9FED980AFBF7FBFF4FF0000A564641
:104ED000D346DFED958A0120CDF818A0B0EE688AA0
:104EE000FBF78CFF9FED910B92A153EC102B01A8C7
:104EF000FFF778F828220A217B4800F071FA009524
:104F0000D7E9002301A9784800F0FBFA764800F0C1
:104F10006DFA0027FCF784F9FCF794F97B4A4346C5
:104F2000A2F50071A1F63810FDF77AF8DFF81082CB
:104F3000B7EE089A0A20FCF7CDFC761CB946F6B20B
:104F40000120FBF79FFF0004000C23D05FEA09015A
:104F50003AD0B9F1010F49D05FF0000718EE100AFE
:104F6000FBF7FEF941EC100B72A153EC102B01A8DA
:104F7000FFF738F828220A215B4800F031FA5B4835
:104F8000009501A9D0E90023574800F0BAFA564825
:104F900000F02CFA98F80010404601B104704078F7
:104FA000002853D088F80140CAF10100C0B25FEA7E
:104FB000000A2FD00020FBF777FF01224021614833
:104FC000FCF76BFD60A12EE0584480B283461F2899
:104FD00001D91F208346FEF758FE00EE10BAB0EE4E
:104FE000688AB8EE400A00EE098AB7E706990844D5
:104FF00080B206904F2801D94F200690FEF72CFE74
:10500000069800EE100AB8EE400ADFED520A30EEC4
:10501000208AA3E70120FBF747FF002240214948EF
:10502000FCF73BFD3AA101A8FEF7DCFF28220A218C
:105030002C4800F0D5F92D48009501A9D0E90023AE
:10504000284800F05EFA274800F0D0F998F80200EE
:1050500040B388F8024014220221234800F0C0F92E
:10506000B9F1000F1FD0214800950027D0E9002397
:105070001FA11D4800F045FA00EE10BA9FED368AD8
:10508000B8EE400A00EE098A18EE100AFBF768F93C
:1050900041EC100B27A153EC102B01A8FEF7A2FF47
:1050A00028225BE06CE0ADE0303802400054004064
:1050B000840C0020A0860100005C0040001001402C
:1050C00000380040000806500000024044535020C1
:1050D000426F617264210A00000C02400CED00E096
:1050E0000400FA05440E0020541200200C00002099
:1050F0004C696E6520566F6C00000000496E70753B
:1051000074000000240400402408004064180020BB
:105110004C696E6520494E2020000000641A002072
:1051200000007A4400803B47000022C200000000DB
:10513000004044C0252E316620644220200000003B
:105140002400002000080240455854204C696E6538
:105150002000000000009EC200000AC20A2134485C
:1051600000F03EF93348009501A9D0E9002330480A
:1051700000F0C7F92E4800F039F90120FBF782FE54
:1051800098F803104046C9B1C4702B480188012922
:105190004BD0058029A101A8FEF724FF00220A2197
:1051A000294800F01DF92348009501A9D0E9002302
:1051B000254800F0A6F9244800F018F9FE2E7FF6E5
:1051C000B9AE00260A20FBF7E9FD10EE100AFBF746
:1051D000C7F841EC100B1DA153EC102B01A8FEF7F2
:1051E00001FF00223221124800F0FAF81A48009517
:1051F00001A9D0E900230E4800F083F90C4800F023
:10520000F5F897E60B4800950127D0E9002313A194
:10521000074800F076F90698DFED130A00EE100A51
:10522000B8EE400A30EE208A2EE704800FA1B2E7E4
:10523000541200200C00002000000020464952209B
:105240002020202000000000440E0020252E326681
:10525000205620200000000004000020485020209C
:1052600020566F6C00000000000092C25061737302
:10527000746872750000000070B5802913D2402A4E
:1052800011D20B4C02F0070526790124AC40D2085C
:1052900001EBC21108440EB133B101E0012B03D080
:1052A000017BA143017370BD017B2143FAE700003C
:1052B0004804002030B500224FF4806331B1FF2450
:1052C0008518521C2C739A42F8D330BD0024F7E79E
:1052D00010B50446782084F80C046420FCF7FAFA30
:1052E000AE21204600F0EEF82021204600F0EAF83A
:1052F0001021204600F0E6F8B021204600F0E2F848
:10530000C821204600F0DEF80021204600F0DAF83F
:105310001021204600F0D6F84021204600F0D2F8B7
:105320008121204600F0CEF8FF21204600F0CAF887
:10533000A121204600F0C6F8A621204600F0C2F8C0
:10534000A821204600F0BEF83F21204600F0BAF820
:10535000A421204600F0B6F8D321204600F0B2F890
:105360000021204600F0AEF8D521204600F0AAF832
:10537000F021204600F0A6F8D921204600F0A2F83E
:105380002221204600F09EF8DA21204600F09AF80B
:105390001221204600F096F8DB21204600F092F81A
:1053A0002021204600F08EF88D21204600F08AF85A
:1053B0001421204600F086F8AF21204600F082F844
:1053C00000212046FFF776FF204600F00FF8034843
:1053D0000021018041800121417110BD480400205D
:1053E00001480180428070474804002070B505469E
:1053F0005FF0000404F1B000C1B2284600F062F88A
:105400000021284600F05EF81021284600F05AF8E6
:1054100005EBC411802228460C3100F064F8641CAE
:10542000E4B2082CE6D370BD2DE9FF4F24488A462C
:10543000D6B201889B463144802906D281464088F5
:10544000C2F307273844402803D3002004B0BDE846
:10545000F08F002529E000BFAAF1200010FB0750C3
:105460003BF8108000241DE008FA04F0000409D580
:1054700099F8021099F800002944CAB22044C1B238
:105480000D9B0BE00D98C8B15FF0000399F8021076
:1054900099F800002944CAB22044C1B20098FFF72D
:1054A000EBFE641CA642DFD86D1CAF42D4D8B9F81D
:1054B000001050463144A9F80010C7E70123E5E782
:1054C0004804002003B583B04FF0FF33012204A944
:1054D0008DE80E0090F80C14134680680022FCF74B
:1054E000A1FB05B000BD0EB54FF0FF3392B28DE8C1
:1054F0000E0090F80C14806801234022FCF792FB08
:105500000EBD2DE9F84116461F460C468046079D04
:1055100009E03B46324640460095FFF785FF21787B
:10552000884203D1641C21780029F2D1C8B2BDE8B9
:10553000F8810000000000000000000000000000F2
:10554000000000000000001000100010001000100B
:1055500000100000001000000000002800280028B3
:105560000000000000000000000000000000002417
:105570000024007C00240048007C00480048000013
:10558000000000380054005000380014005400544B
:10559000003800100000002000540058003000289F
:1055A000005400140008000000000010002800282B
:1055B00000100034004800480034000000000010D3
:1055C00000100010000000000000000000000000BB
:1055D0000000000800100020002000200020002013
:1055E000002000100008002000100008000800083B
:1055F000000800080008001000200010003800100B
:105600000028000000000000000000000000000072
:10561000000000100010007C0010001000000000CE
:10562000000000000000000000000000000000007A
:10563000001000100010000000000000000000003A
:105640000038000000000000000000000000000022
:105650000000000000000000001000000000000832
:1056600000080010001000100010002000200000B2
:10567000000000380044004400540044004400444A
:105680000038000000000010003000500010001032
:10569000001000100010000000000038004400441A
:1056A0000004000800100020007C0000000000380A
:1056B0000044000400180004000400440038000006
:1056C000000000080018002800280048007C00089E
:1056D000000800000000007C00400040007800044A
:1056E000000400440038000000000038004400407E
:1056F0000078004400440044003800000000007CB2
:10570000000400080010001000200020002000000D
:1057100000000038004400440038004400440044C5
:105720000038000000000038004400440044003C01
:1057300000040044003800000000000000000010D9
:105740000000000000000000001000000000000049
:105750000000000000100000000000000010001019
:10576000001000000000000C003000400030000C71
:10577000000000000000000000000000007C0000AD
:10578000007C00000000000000000000000000603D
:10579000001800040018006000000000000000383D
:1057A0000044000400080010001000000010000079
:1057B000000000380044004C0054005C00400040F1
:1057C00000380000000000100028002800280028F1
:1057D000007C0044004400000000007800440044C5
:1057E00000780044004400440078000000000038C5
:1057F00000440040004000400040004400380000E9
:105800000000007000480044004400440044004888
:10581000007000000000007C00400040007C004060
:1058200000400040007C00000000007C0040004080
:1058300000780040004000400040000000000038B8
:10584000004400400040005C004400440038000078
:105850000000004400440044007C00440044004434
:10586000004400000000003800100010001000107C
:1058700000100010003800000000000400040004C4
:10588000000400040004004400380000000000444C
:1058900000480050006000500048004800440000EC
:1058A0000000004000400040004000400040004038
:1058B000007C000000000044006C006C00540044B8
:1058C0000044004400440000000000440064006400
:1058D00000540054004C004C00440000000000380C
:1058E00000440044004400440044004400380000E8
:1058F000000000780044004400440078004000406C
:10590000004000000000003800440044004400440F
:1059100000440054003800040000007800440044B3
:1059200000440078004800480044000000000038AF
:10593000004400400030000800040044003800002B
:105940000000007C0010001000100010001000107B
:1059500000100000000000440044004400440044E3
:1059600000440044003800000000004400440044AB
:10597000002800280028001000100000000000444B
:105980000044005400540054006C0028002800001B
:105990000000004400280028001000100028002803
:1059A00000440000000000440044002800280010CB
:1059B00000100010001000000000007C000400082F
:1059C0000010001000200040007C000000000018C3
:1059D0000010001000100010001000100010001047
:1059E0000018002000200010001000100010000817
:1059F000000800000000003000100010001000102F
:105A000000100010001000100030001000280028C6
:105A10000044000000000000000000000000000042
:105A20000000000000000000000000000000000076
:105A300000FE002000100000000000000000000038
:105A40000000000000000000000000380044003C9E
:105A50000044004C003400000000004000400058AA
:105A6000006400440044006400580000000000008E
:105A700000000038004400400040004400380000AE
:105A80000000000400040034004C00440044004CBA
:105A90000034000000000000000000380044007CDA
:105AA00000400044003800000000000C0010007CA2
:105AB0000010001000100010001000000000000096
:105AC00000000034004C00440044004C003400044A
:105AD0000078004000400058006400440044004446
